{
  "contractName": "Guestbook",
  "abi": [
    {
      "anonymous": false,
      "inputs": [
        {
          "indexed": false,
          "internalType": "string",
          "name": "message",
          "type": "string"
        },
        {
          "indexed": false,
          "internalType": "bytes32",
          "name": "name",
          "type": "bytes32"
        }
      ],
      "name": "SignatureAdded",
      "type": "event"
    },
    {
      "inputs": [
        {
          "internalType": "bytes32",
          "name": "name",
          "type": "bytes32"
        }
      ],
      "name": "signBook",
      "outputs": [],
      "stateMutability": "nonpayable",
      "type": "function"
    },
    {
      "inputs": [],
      "name": "getNames",
      "outputs": [
        {
          "internalType": "bytes32[]",
          "name": "",
          "type": "bytes32[]"
        }
      ],
      "stateMutability": "view",
      "type": "function",
      "constant": true
    }
  ],
  "bytecode": "0x608060405234801561001057600080fd5b50610348806100206000396000f3fe608060405234801561001057600080fd5b50600436106100365760003560e01c8063041be4f81461003b578063cd838f0f14610057575b600080fd5b6100556004803603810190610050919061016b565b610075565b005b61005f6100d8565b60405161006c9190610256565b60405180910390f35b60008190806001815401808255809150506001900390600052602060002001600090919091909150557f52459aff3b9a588e65d060c0affd7121b01e01e17dfcc75e0050b9035822e319816040516100cd91906102e4565b60405180910390a150565b6060600080548060200260200160405190810160405280929190818152602001828054801561012657602002820191906000526020600020905b815481526020019060010190808311610112575b5050505050905090565b600080fd5b6000819050919050565b61014881610135565b811461015357600080fd5b50565b6000813590506101658161013f565b92915050565b60006020828403121561018157610180610130565b5b600061018f84828501610156565b91505092915050565b600081519050919050565b600082825260208201905092915050565b6000819050602082019050919050565b6101cd81610135565b82525050565b60006101df83836101c4565b60208301905092915050565b6000602082019050919050565b600061020382610198565b61020d81856101a3565b9350610218836101b4565b8060005b8381101561024957815161023088826101d3565b975061023b836101eb565b92505060018101905061021c565b5085935050505092915050565b6000602082019050818103600083015261027081846101f8565b905092915050565b600082825260208201905092915050565b7f4e6577206775657374207369676e617475726521000000000000000000000000600082015250565b60006102bf601483610278565b91506102ca82610289565b602082019050919050565b6102de81610135565b82525050565b600060408201905081810360008301526102fd816102b2565b905061030c60208301846102d5565b9291505056fea26469706673582212208d47c4058362309b9ac0c9c51b4714595a8b4866008d8f95a9522d19e3cc36b464736f6c634300080d0033",
  "immutableReferences": {},
  "source": "// SPDX-License-Identifier: MIT\r\n\r\npragma solidity 0.8.13;\r\n\r\ncontract Guestbook {\r\n    event SignatureAdded(string message, bytes32 name);\r\n    bytes32[] guests;\r\n\r\n    function signBook(bytes32 name) public {\r\n        guests.push(name);\r\n        emit SignatureAdded(\"New guest signature!\", name);\r\n    }\r\n\r\n    function getNames() public view returns (bytes32[] memory) {\r\n        return guests;\r\n    }\r\n}\r\n",
  "sourcePath": "C:\\Users\\myusf\\github_files\\web3-frontend-projects\\web3-mk2\\contracts\\Guestbook.sol",
  "compiler": {
    "name": "solc",
    "version": "0.8.13+commit.abaa5c0e.Emscripten.clang"
  },
  "schemaVersion": "3.4.7",
  "updatedAt": "2022-05-08T18:55:16.036Z",
  "networkType": "ethereum",
  "devdoc": {
    "kind": "dev",
    "methods": {},
    "version": 1
  },
  "userdoc": {
    "kind": "user",
    "methods": {},
    "version": 1
  }
}